:020000005B2B78
:06000600000000000800EC
:10000C000F3083120313FC004730FD00FD0B0C284E
:0A001C00FC0B0C2800000000080097
:0E002600213083120313FD00FD0B1728080084
:1000340083120313D21B2028881121288815521BF0
:100044002528081126280815D21A2A2888102B28B2
:100054008814521A2F28081030280814331834280A
:10006400081635280812881603208812D2193C284D
:1000740088113D288815521941280811422808156D
:10008400D218462888104728881452184B2808107C
:100094004C280814331850280816512808128816BA
:1000A40003208812331C58280620592813200800DE
:0E00B4008312031332088A003108820008000C
:1000C2007328803083120313CF008628C030CF00FC
:1000D20086289430CF008628D430CF0086288030FE
:1000E200CF008628831203134F08013A03196228AE
:1000F2004F08023A031967284F08033A03196A287E
:100102004F08043A03196D2870285003F0004F0875
:10011200F0077008CF0033147008D2001A20331091
:0A0122005108D2001A20331408001F
:10012C000E3083120313FD00FD0B9A28000008000B
:10013C008312031333104F08D2001A203314080013
:10014C00831203139F01C0309F043009F000700824
:10015C0083169F051F179F1783124B08F000F00D95
:10016C007010F00D7010F00D701070089F041F14BB
:10017C0096201F151F1DC4280000C0281F101E0824
:10018C00F100F00183161E08F0040030F1040800A1
:10019C00831203132230FC00F801F901FA01FB0170
:1001AC00FC03031904290310FB0CFA0CF90CF80CD2
:1001BC00F30CF20CF10CF00C031CD628FC03031905
:1001CC00F6287408F80775080318750FF9077608F0
:1001DC000318760FFA0777080318770FFB07DA284E
:1001EC007408F80775080318750FF90776080318D3
:0E01FC00760FFA0777080318770FFB07080045
:0E020A008312031306108614061186110800D5
:0E0218008312031306108610061586110800C7
:100226008316031388120812081088100811881103
:1002360083128812081288110811881008100620E7
:100246000620062088140814881603208812062023
:100256008816032088120620881603208812062096
:100266000810881603208812062088160320881294
:10027600881088158816032088120620881108140D
:100286008816032088120810881603208812062074
:100296008816032088120814881603208812062060
:1002A6000810881603208812881508158814081463
:0C02B6008816032088120620331408006C
:1002C20083120313FB01FA01F901F801A001730D76
:1002D200F80D7408F8027508031C750FF902760808
:1002E200031C760FFA027708031C770FFB0200014A
:1002F200031C0130A002F30D0730FC00730DF80D52
:10030200F90DFA0DFB0DA00D7408731C9A29F80261
:100312007508031C750FF9027608031C760FFA02A2
:100322007708031C770FFB020001031C0130A002B7
:10033200AB29F80775080318750FF9077608031833
:10034200760FFA0777080318770FFB0700010318E7
:100352000130A007F30DFC0B7F29720DF80DF90D8A
:10036200FA0DFB0DA00D7408731CC929F80275085B
:10037200031C750FF9027608031C760FFA02770840
:10038200031C770FFB020001031C0130A002DA29D3
:10039200F80775080318750FF90776080318760F22
:1003A200FA0777080318770FFB07000103180130DB
:1003B200A007F20D0730FC00720DF80DF90DFA0DD1
:1003C200FB0DA00D7408721CF829F8027508031CB5
:1003D200750FF9027608031C760FFA027708031CE0
:1003E200770FFB020001031C0130A002092AF80763
:1003F20075080318750FF90776080318760FFA07C0
:1004020077080318770FFB07000103180130A007D4
:10041200F20DFC0BDD29710DF80DF90DFA0DFB0D36
:10042200A00D7408721C272AF8027508031C750FA8
:10043200F9027608031C760FFA027708031C770F7D
:10044200FB020001031C0130A002382AF8077508DC
:100452000318750FF90776080318760FFA0777085D
:100462000318770FFB07000103180130A007F10DF5
:100472000730FC00710DF80DF90DFA0DFB0DA00D02
:100482007408711C562AF8027508031C750FF902CC
:100492007608031C760FFA027708031C770FFB021B
:1004A2000001031C0130A002672AF807750803182F
:1004B200750FF90776080318760FFA0777080318FD
:1004C200770FFB07000103180130A007F10DFC0BA9
:1004D2003B2A700DF80DF90DFA0DFB0DA00D7408F5
:1004E200711C852AF8027508031C750FF90276083B
:1004F200031C760FFA027708031C770FFB02000138
:10050200031C0130A002962AF80775080318750F1C
:10051200F90776080318760FFA0777080318770F9A
:10052200FB07000103180130A007F00D0730FC00A3
:10053200700DF80DF90DFA0DFB0DA00D7408701C6D
:10054200B42AF8027508031C750FF9027608031C19
:10055200760FFA027708031C770FFB020001031CD7
:100562000130A002C52AF80775080318750FF907AC
:1005720076080318760FFA0777080318770FFB0738
:10058200000103180130A007F00DFC0B992A701826
:10059200D82A7408F80775080318750FF907760842
:1005A2000318760FFA0777080318770FFB0708007E
:1005B200403083120313D2001A20CD014D08073CAC
:1005C200031CF52A4D08023EF00005300318013ED7
:1005D200F1007008B1007108B2005A208A110A12A3
:1005E200CF009E20CD0ADF2A0230D2001A204B080B
:0C05F200CF004C08D000D10161200800AF
:1005FE00112B803083120313CB00242BC030CB0081
:10060E00242B9430CB00242BD430CB00242B8030E1
:10061E00CB00242B831203134B08013A0319002B32
:10062E004B08023A0319052B4B08033A0319082B02
:10063E004B08043A03190B2B0E2B4C03F0004B08FE
:10064E00F0077008CB007008D2001A203310CE01CC
:10065E004E084D078400000803193D2B4E084D0728
:10066E0084000008CF009E20CE0A2F2B33140800E2
:10067E0083120313061486100611861100304C06E1
:10068E00031D4B2B01304B06031D4E2B8615080008
:10069E005A208A110A128000840AB10A0319B20A7A
:0806AE00F003031D4F2B0800AF
:1006B6000A25FF30831603138500860188018312FD
:1006C60085018601880101309F0013210130D20087
:1006D6001A200C30D2001A200130CB000130CC0099
:1006E6002130CD00FF22CB01A62070088312B8006E
:1006F6007108B900BA01BB013808F0003908F100E9
:100706003A08F2003B08F3000530F400F501F60163
:10071600F701CE206430F400F501F601F701CE2092
:100726007008C7007108C8007208C9007308CA00BB
:10073600FF30F4000330F500F601F7014708F0003A
:100746004808F1004908F2004A08F30061217008E0
:10075600C3007108C4007208C5007308C6004308C8
:10076600B4004408B5004508B6004608B7000A308C
:10077600F400F501F601F7014308F0004408F10022
:100786004508F2004608F30061217008BF007108B1
:10079600C0007208C1007308C2003F08BC000A30DE
:1007A600F400F501F601F7014308F0004408F100F2
:1007B6004508F2004608F30061217808F000790840
:1007C600F1007A08F2007B08F3007008BE00FF30E3
:1007D600F4000330F500F601F7014708F000480879
:1007E600F1004908F2004A08F30061217808F00098
:1007F6007908F1007A08F2007B08F3000A30F40069
:10080600F501F601F701CE20FF30F4000330F500C4
:10081600F601F70161217008BD000230CF000930F2
:10082600D00030303F07D100612030303E07CF0086
:100836009E202E30CF009E2030303D07CF009E20D8
:100846000230CB000D30CC00D9223C08023A031D01
:10085600352C3E08043A031D352C3D08003A031D8D
:10086600352C502C3C08023C031C422C3E08033C11
:10087600031C422C3D08093C031C422C502C3C080E
:10088600013C031C4F2C3E08093C031C4F2C3D0821
:10089600093C031C4F2C502C512C0C213C08023ACD
:1008A600031D5E2C3E08043A031D5E2C3D08013CE8
:1008B60003185E2C862C3C08023A031D6B2C043070
:1008C6003E02031C6B2C3D08093C031C6B2C862C3A
:1008D6003C08033A031D782C3E08013C031C782C87
:1008E6003D08093C031C782C862C3C08033A031D62
:1008F600852C3E08023A031D852C3D08003A031D4F
:10090600852C862C892CAE01AF0105213C08033AC3
:10091600031D962C3E08023A031D962C3D08013C09
:100926000318962CB52C3C08033A031DA72C03305C
:100936003E02031CA72C3E08043C031CA72C3D08C2
:10094600093C031CA72CB52C3C08033A031DB42C08
:100956003E08053A031DB42C3D08003A031DB42C8D
:10096600B52CBA2C2E08CB002F08CC003F233C0810
:10097600033A031DC72C3E08053A031DC72C3D0844
:10098600013C0318C72CD52C03303C02031CD42C85
:1009960005303E02031CD42C3D08093C031CD42C14
:1009A600D52CDE2C0130AE000030AF000130CB007C
:1009B6000030CC003F230230FB000430FC00BA308C
:1009C600FD00FD0BE42CFC0BE42CFB0BE42C0000DF
:0409D600762BEC2C64
:100A140021308400103083120313F000F230B1004F
:080A24000430B2004F2308006A
:1009E400543465346D347034653472346134743421
:0A09F4007534723461343A34003473
:0409FE00003400348D
:020A02000F34AF
:100A0400063409340634003400340034003400342D
:02400E004A2F37
:00000001FF
