:02000000592B7A
:06000600000000000800EC
:10000C000F3083120313FC004730FD00FD0B0C284E
:0A001C00FC0B0C2800000000080097
:0E002600213083120313FD00FD0B1728080084
:1000340083120313D01B2028881121288815501BF4
:100044002528081126280815D01A2A2888102B28B4
:100054008814501A2F280810302808142F18342810
:10006400081635280812881603208812D0193C284F
:1000740088113D288815501941280811422808156F
:10008400D018462888104728881450184B28081080
:100094004C2808142F1850280816512808128816BE
:1000A400032088122F1C58280620592813200800E2
:1000B4006C28803083120313CD007F28C030CD001C
:1000C4007F289430CD007F28D430CD007F28803025
:1000D400CD007F28831203134D08013A03195B28CE
:1000E4004D08023A031960284D08033A031963289E
:1000F4004D08043A0319662869284E03F0004D0898
:10010400F0077008CD002F147008D0001A202F10AB
:0A0114004F08D0001A202F14080035
:0E011E008312031331088A00300882000800A3
:10012C000E3083120313FD00FD0B9A28000008000B
:10013C00831203132F104D08D0001A202F1408001F
:10014C00831203139F01C0309F042109F000700833
:10015C0083169F051F179F1783124908F000F00D97
:10016C007010F00D7010F00D701070089F041F14BB
:10017C0096201F151F1DC4280000C0281F101E0824
:10018C00F100F00183161E08F0040030F1040800A1
:10019C008F208A110A128000840AB00A0319B10A4E
:0801AC00F003031DCE2808003A
:0E01B40083120313061486100611861108002C
:0E01C20083120313061086140611861108001E
:1001D000403083120313D0001A20CB014B08073C98
:1001E000031C04294B08F13EF00004300318013EC3
:1001F000F1007008B0007108B1008F208A110A1256
:10020000CD009E20CB0AEE280230D0001A204908EB
:0C021000CD004A08CE00CF015A200800A3
:10021C0083120313FB01FA01F901F801A001730D1C
:10022C00F80D7408F8027508031C750FF9027608AE
:10023C00031C760FFA027708031C770FFB020001F0
:10024C00031C0130A002F30D0730FC00730DF80DF8
:10025C00F90DFA0DFB0DA00D7408731C4729F8025B
:10026C007508031C750FF9027608031C760FFA0249
:10027C007708031C770FFB020001031C0130A0025E
:10028C005829F80775080318750FF907760803182D
:10029C00760FFA0777080318770FFB07000103188E
:1002AC000130A007F30DFC0B2C29720DF80DF90D84
:1002BC00FA0DFB0DA00D7408731C7629F802750855
:1002CC00031C750FF9027608031C760FFA027708E7
:1002DC00031C770FFB020001031C0130A0028729CD
:1002EC00F80775080318750FF90776080318760FC9
:1002FC00FA0777080318770FFB0700010318013082
:10030C00A007F20D0730FC00720DF80DF90DFA0D77
:10031C00FB0DA00D7408721CA529F8027508031CAE
:10032C00750FF9027608031C760FFA027708031C86
:10033C00770FFB020001031C0130A002B629F8075D
:10034C0075080318750FF90776080318760FFA0766
:10035C0077080318770FFB07000103180130A0077B
:10036C00F20DFC0B8A29710DF80DF90DFA0DFB0D30
:10037C00A00D7408721CD429F8027508031C750FA3
:10038C00F9027608031C760FFA027708031C770F24
:10039C00FB020001031C0130A002E529F8077508D7
:1003AC000318750FF90776080318760FFA07770804
:1003BC000318770FFB07000103180130A007F10D9C
:1003CC000730FC00710DF80DF90DFA0DFB0DA00DA9
:1003DC007408711C032AF8027508031C750FF902C6
:1003EC007608031C760FFA027708031C770FFB02C2
:1003FC000001031C0130A002142AF8077508031829
:10040C00750FF90776080318760FFA0777080318A3
:10041C00770FFB07000103180130A007F10DFC0B4F
:10042C00E829700DF80DF90DFA0DFB0DA00D7408EF
:10043C00711C322AF8027508031C750FF902760834
:10044C00031C760FFA027708031C770FFB020001DE
:10045C00031C0130A002432AF80775080318750F16
:10046C00F90776080318760FFA0777080318770F41
:10047C00FB07000103180130A007F00D0730FC004A
:10048C00700DF80DF90DFA0DFB0DA00D7408701C14
:10049C00612AF8027508031C750FF9027608031C13
:1004AC00760FFA027708031C770FFB020001031C7E
:1004BC000130A002722AF80775080318750FF907A6
:1004CC0076080318760FFA0777080318770FFB07DF
:1004DC00000103180130A007F00DFC0B462A701820
:1004EC00852A7408F80775080318750FF90776083C
:1004FC000318760FFA0777080318770FFB07080025
:10050C00831203132230FC00F801F901FA01FB01FC
:10051C00FC030319BC2A0310FB0CFA0CF90CF80CA5
:10052C00F30CF20CF10CF00C031C8E2AFC030319D7
:10053C00AE2A7408F80775080318750FF9077608C2
:10054C000318760FFA0777080318770FFB07922A20
:10055C007408F80775080318750FF907760803185F
:0E056C00760FFA0777080318770FFB070800D1
:0E057A00831203130610861006158611080062
:10058800831603138812081208108810081188119E
:100598008312881208128811081188100810062082
:1005A80006200620881408148816032088120620BE
:1005B8008816032088120620881603208812062031
:1005C800081088160320881206208816032088122F
:1005D80088108815881603208812062088110814A8
:1005E800881603208812081088160320881206200F
:1005F80088160320881208148816032088120620FB
:1006080008108816032088128815081588140814FD
:0C06180088160320881206202F1408000A
:10062400242B803083120313C900372BC030C90038
:10063400372B9430C900372BD430C900372B803086
:10064400C900372B831203134908013A0319132BEA
:100654004908023A0319182B4908033A03191B2BBA
:100664004908043A03191E2B212B4A03F0004908B8
:10067400F0077008C9007008D0001A202F10CC01B0
:100684004C084B07840000080319502B4C084B07F7
:1006940084000008CD009E20CC0A422B2F140800B1
:0E06A400831203130614861006118615080033
:1006B200FA24FF3083160313850086018801831212
:1006C20085018601880101309F00C4220130D000DB
:1006D2001A200C30D0001A200130C9000130CA00A3
:1006E2002230CB001223C901A62070088312B30066
:1006F2007108B400B501B6013308F0003408F10006
:100702003508F2003608F3000530F400F501F60171
:10071200F70186226430F400F501F601F701862222
:100722007008C5007108C6007208C7007308C800C7
:10073200FF30F4000330F500F601F7014508F00040
:100742004608F1004708F2004808F3000E2170083D
:10075200C1007108C2007208C3007308C4004108D6
:10076200B7004208B8004308B9004408BA000A308A
:10077200F400F501F601F7014108F0004208F1002A
:100782004308F2004408F3000E217008BD0071080E
:10079200BE007208BF007308C0003D08BC000A30EA
:1007A200F400F501F601F7014108F0004208F100FA
:1007B2004308F2004408F3000E217808F00079089B
:1007C200F1007A08F2007B08F3007008BB00FF30EA
:1007D200F4000330F500F601F7014508F000460881
:1007E200F1004708F2004808F3000E217808F000F3
:1007F2007908F1007A08F2007B08F3000A30F4006D
:10080200F501F601F7018622FF30F4000330F5000E
:10081200F601F7010E217008B2000230CD00093056
:10082200CE0030303D07CF005A2030303B07CD009C
:100832009E202E30CD009E2030303207CD009E20EB
:100842000230C9000D30CA00E8203C08023A031DFC
:10085200332C3B08043A031D332C3208003A031DA3
:10086200332C4E2C3C08023C031C402C3B08033C1E
:10087200031C402C3208093C031C402C4E2C3C0823
:10088200013C031C4D2C3B08093C031C4D2C320837
:10089200093C031C4D2C4E2C4F2CBD223C08023A25
:1008A200031D5C2C3B08043A031D5C2C3208013CFE
:1008B20003185C2C842C3C08023A031D692C04307A
:1008C2003B02031C692C3208093C031C692C842C52
:1008D2003C08033A031D762C3B08013C031C762C92
:1008E2003208093C031C762C842C3C08033A031D75
:1008F200832C3B08023A031D832C3208003A031D65
:10090200832C842C852CE1203C08033A031D922C75
:100912003B08023A031D922C3208013C0318922C28
:10092200B12C3C08033A031DA32C03303B02031CE9
:10093200A32C3B08043C031CA32C3208093C031CD7
:10094200A32CB12C3C08033A031DB02C3B08053AFA
:10095200031DB02C3208003A031DB02CB12CB22C6E
:10096200DA203C08033A031DBF2C3B08053A031D5D
:10097200BF2C3208013C0318BF2CCD2C03303C02A3
:10098200031CCC2C05303B02031CCC2C3208093C46
:10099200031CCC2CCD2CCF2CDA2052230230FB00AE
:1009A2000430FC00BA30FD00FD0BD52CFC0BD52C1D
:0A09B200FB0BD52C0000742BDD2C8C
:1009F400213084000E3083120313F000E330B00082
:080A04000430B100CE2008000F
:0209C6000F34EC
:1009C800543465346D34703465347234613474343D
:0A09D8007534723461343A3400348F
:1009E2000634093406340034003400340034003450
:02400E004A2F37
:00000001FF
